:020000040800F2
:10000000008002205D0E0008B10D0008B90D000847
:10001000C10D0008C90D0008D10D00080000000046
:10002000000000000000000000000000D90D0008E2
:10003000E70D000800000000F50D0008030E0008A1
:10004000AD0E0008AD0E0008AD0E0008AD0E0008A4
:10005000AD0E0008AD0E0008AD0E0008AD0E000894
:10006000AD0E0008AD0E0008AD0E0008AD0E000884
:10007000AD0E0008AD0E0008AD0E0008AD0E000874
:10008000AD0E0008AD0E0008110E0008AD0E000800
:10009000AD0E0008AD0E0008AD0E0008AD0E000854
:1000A000250E0008AD0E0008AD0E0008AD0E0008CC
:1000B000AD0E0008AD0E000800000000AD0E0008F7
:1000C000AD0E0008AD0E0008AD0E0008AD0E000824
:1000D000AD0E0008AD0E0008AD0E0008AD0E000814
:1000E000AD0E0008AD0E000800000000000000008A
:1000F0000000000000000000000000000000000000
:1001000000000000AD0E000800000000AD0E000869
:10011000AD0E000800000000AD0E00080000000059
:10012000AD0E0008AD0E0008AD0E0008AD0E0008C3
:10013000AD0E0008AD0E0008AD0E00080000000076
:10014000AD0E0008AD0E0008AD0E0008AD0E0008A3
:10015000AD0E0008AD0E0008AD0E0008AD0E000893
:10016000AD0E0008AD0E0008AD0E00080000000046
:1001700000000000AD0E00080000000000000000BC
:10018000AD0E0008AD0E0008AD0E0008AD0E000863
:04019000AD0E0008A8
:1001940010B5054C237833B9044B13B10448AFF3BD
:1001A40000800123237010BD0C000020000000001B
:1001B4002065000808B5034B1BB103490348AFF39E
:1001C400008008BD00000000100000202065000829
:1001D40053B94AB9002908BF00281CBF4FF0FF31AA
:1001E4004FF0FF3000F06AB9ADF1080C6DE904CEB0
:1001F40000F006F8DDF804E0DDE9022304B07047FE
:100204002DE9F047089D0C46002B4ED194468C45B1
:100214008646B2FA82F262D94AB1C2F12003914011
:1002240020FA03F30CFA02FC194300FA02FE4FEA27
:100234001C471FFA8CF6B1FBF7F44FEA1E4307FB89
:10024400141143EA014304FB06F199420AD91CEB59
:10025400030304F1FF3080F01281994240F20F81D0
:10026400023C6344591A1FFA8EF3B1FBF7F007FB03
:10027400101143EA014300FB06F69E420AD91CEB27
:10028400030300F1FF3180F0FC809E4240F2F980CC
:10029400634402389B1B40EA044000211DB1D34053
:1002A4000022C5E90032BDE8F0878B4205D90DB1C3
:1002B400C5E9000100210846F5E7B3FA83F10029F6
:1002C40046D1A34202D39042C0F0F080861A64EB78
:1002D40003030120002DE6D0C5E90063E3E7002A0B
:1002E40040F09080A1EB0C044FEA1C481FFA8CF7F5
:1002F4000121B4FBF8F64FEA1E4308FB164443EA17
:10030400044307FB06F0984208D91CEB030306F1EB
:10031400FF3402D2984200F2CD8026461C1A1FFAFE
:100324008EF3B4FBF8F008FB104443EA044300FBEB
:1003340007F79F4208D91CEB030300F1FF3402D2F4
:100344009F4200F2B0802046DB1B40EA0640A5E74E
:10035400C1F120068B4022FA06F71F4320FA06FC5F
:1003640004FA01F343EA0C03F44000FA01F8380CF0
:100374004FEA1349B4FBF0FE1FFA87FC00FB1E444E
:1003840049EA04440EFB0CF9A14502FA01F20AD928
:100394003C190EF1FF3A80F08480A14540F281803F
:1003A400AEF1020E3C44A4EB09041FFA83F9B4FB3A
:1003B400F0F300FB134449EA044403FB0CFCA4459A
:1003C40007D93C1903F1FF3067D2A44565D9023B34
:1003D4003C4443EA0E40A0FB0293A4EB0C049C4271
:1003E400CE469C4651D34ED055B1B8EB0E0364EBC8
:1003F4000C0404FA06F6CB401E43CC40C5E9006465
:10040400002150E7C2F1200320FA03F10CFA02FCA8
:1004140024FA03F394400C434FEA1C4800FA02FE0A
:100424001FFA8CF7B3FBF8F008FB1031230C43EAF6
:10043400014300FB07F1994208D91CEB030300F1C7
:10044400FF362CD299422AD9023863445B1AA4B2EB
:10045400B3FBF8F108FB113344EA034401FB07F34F
:10046400A34208D91CEB040401F1FF3613D2A342C2
:1004740011D902396444E41A41EA004139E70446D7
:10048400F0E6084606E7C845AED2B9EB020E63EBC8
:10049400070C0138A8E73146EDE7034699E73046F3
:1004A400D4E7D6467FE7634402384DE70646234641
:1004B40008460FE7023E634430E700BF704700BFC1
:1004C40080B500AF7F210E4802F060FA00F01EF8FC
:1004D4000C4B1B78002BFBD000F06AF800F02AF8D4
:1004E400094B1B8840F2DB52934205D8054B00228E
:1004F4001A7000F00BF8EBE700BF00BF80BD00BF2F
:100504002C000020280000202A00002080B500AF25
:100514000021024804F02EF900BF80BD94000020A1
:1005240080B500AF0021024804F056FA00BF80BD38
:100534009400002080B500AF024801F0D3F900BF59
:1005440080BD00BF2C00002080B500AF034801F03F
:100554007DFA03469BB2184680BD00BF2C000020E4
:1005640080B586B000AF3B1D00221A605A609A60C5
:10057400DA601A610C4801F08FF801237B600123D3
:10058400BB600023FB6000233B613B1D1946074809
:1005940002F0D2FB00220121044802F021FE00BF38
:1005A4001837BD4680BD00BF2C000020000800485D
:1005B40080B58CB000AF07F11C0300221A605A60AA
:1005C4009A60DA601A613B1D00221A605A609A60D0
:1005D400DA601A615A6101212A4802F027FD2A4B88
:1005E4002A4A1A60284B00225A60274B00229A603C
:1005F400254B0022DA60244B00221A61224B04228C
:100604005A61214B00221A761F4B00225A761E4B48
:100614000122DA611C4B002283F820201A4B0022AD
:100624009A62194B0022DA62174B002283F83020B9
:10063400154B00225A63144B002283F838201248C9
:1006440000F0E4FE0346002B01D000F03DFA104B0D
:100654007B600623BB600023FB607F233B61042394
:100664007B610023BB613B1D1946074801F0C4FBB5
:100674000346002B01D000F027FA00BF3037BD46F7
:1006840080BD00BF000800482C000020000004507A
:100694000200300480B582B000AF78607B681B68CC
:1006A400074A934207D1FFF74FFF03461A46054B0B
:1006B4001A80FFF755FF00BF0837BD4680BD00BF55
:1006C400000004502A00002080B582B000AF78609A
:1006D4007B681B680B4A934210D10B4B1B68013398
:1006E400094A1360084B1B680A2B07D1064B0022EA
:1006F4001A60064B01221A70FFF712FF00BF083779
:10070400BD4680BD00400140680100202800002053
:1007140080B582B000AF00F0C8FB00F00EF800F026
:1007240093F900F061F900F059F800F0BBF8FFF715
:10073400C7FE00237B6000BFFDE780B596B000AF25
:1007440007F1140344220021184605F0BAFE3B4683
:1007540000221A605A609A60DA601A614FF40070DD
:1007640002F064FD0346002B01D000F0ADF9022332
:100774007B614FF480733B6240237B620223FB6303
:1007840002233B6402237B641423BB640723FB64BE
:1007940002233B6508237B6507F11403184602F026
:1007A4009BFD0346002B01D000F08EF90F233B6024
:1007B40003237B608023BB600023FB6000233B6139
:1007C4003B460021184603F09BF90346002B01D059
:1007D40000F07AF900BF5837BD4680BD80B586B0B9
:1007E40000AF3B4600221A605A609A60DA601A61D0
:1007F4005A61294B294A1A60274B00225A60264B1A
:1008040000229A60244B0022DA60234B00221A61F2
:10081400214B04225A61204B00221A761E4B0022DF
:100824005A761D4B0122DA611B4B002283F82020EB
:10083400194B00229A62184B0022DA62164B0022EE
:1008440083F83020144B00225A63134B002283F8A0
:100854003820114800F0DAFD0346002B01D000F0E7
:1008640033F90F4B3B6006237B600023BB607F237F
:10087400FB6004233B6100237B613B461946064829
:1008840001F0BAFA0346002B01D000F01DF900BFB5
:100894001837BD4680BD00BF2C0000200000045066
:1008A4000200300480B59AB000AF07F1580300226B
:1008B4001A605A609A60DA6007F14C0300221A60E9
:1008C4005A609A6007F1300300221A605A609A60F5
:1008D400DA601A615A619A613B1D2C220021184684
:1008E40005F0EFFD3E4B3F4A1A603D4B00225A6033
:1008F4003B4B00229A603A4B40F2E732DA60384BC5
:1009040000221A61364B00225A61354B00229A614B
:10091400334803F077FE0346002B01D000F0D4F8EF
:100924004FF48053BB6507F1580319462C4804F073
:100934003DFB0346002B01D000F0C6F8284803F025
:10094400B8FE0346002B01D000F0BEF80023FB6480
:1009540000237B6507F14C031946214804F0C4FFCA
:100964000346002B01D000F0AFF860233B634FF443
:1009740073737B630223BB630023FB6300233B6429
:1009840000237B640023BB6407F130030022194673
:10099400134804F0F7F90346002B01D000F094F853
:1009A40000237B600023BB600023FB6000233B61CA
:1009B40000237B614FF40053BB610023FB623B1DAA
:1009C4001946074804F0FEFF0346002B01D000F04F
:1009D4007BF8034800F058F900BF6837BD4680BD76
:1009E400940000200040014080B500AF144B154A2C
:1009F4001A60134B4FF4E1325A60114B00229A6093
:100A04000F4B0022DA600E4B00221A610C4B0C22B1
:100A14005A610B4B00229A61094B0022DA61084BA0
:100A240000221A62064B00225A62054805F060F85B
:100A34000346002B01D000F047F800BF80BD00BF83
:100A4400E00000200038014080B588B000AF07F115
:100A54000C0300221A605A609A60DA601A61184B1B
:100A6400DB6C174A43F00403D364154BDB6C03F0CF
:100A74000403BB60BB68124BDB6C114A43F00103F7
:100A8400D3640F4BDB6C03F001037B607B680022B3
:100A94004FF400510B4802F0A3FB4FF40053FB60EA
:100AA40001233B6100237B610023BB6107F10C033D
:100AB4001946044802F040F900BF2037BD4680BD06
:100AC400001002400008004880B400AF72B600BFB6
:100AD40000BFFDE780B483B000AF0F4B1B6E0E4A1E
:100AE40043F0010313660C4B1B6E03F001037B60A0
:100AF4007B68094B9B6D084A43F080539365064B12
:100B04009B6D03F080533B603B6800BF0C37BD46D0
:100B14005DF8047B704700BF0010024080B5A4B0AC
:100B240000AF786007F17C0300221A605A609A6073
:100B3400DA601A6107F1140368220021184605F0EF
:100B4400C0FC7B681B682A4A93424CD14FF4804313
:100B54007B614FF080533B670223BB610223FB613F
:100B64000A233B6207237B620223BB620823FB62E6
:100B74004FF080733B6307F11403184603F0E4F964
:100B84000346002B01D0FFF79FFF1A4BDB6C194A79
:100B940043F40053D364174BDB6C03F400533B6101
:100BA4003B69144BDB6C134A43F00403D364114BCD
:100BB400DB6C03F00403FB60FB680123FB670B237E
:100BC400C7F880300023C7F8843007F17C03194646
:100BD400094802F0B1F800220021122002F067F85F
:100BE400122002F080F800BF9037BD4680BD00BFE0
:100BF40000000450001002400008004880B582B094
:100C040000AF78607B681B68094A93420CD1094B9A
:100C1400DB6C084A23F40053D3640121064802F034
:100C240005FA122002F06DF800BF0837BD4680BDFA
:100C340000000450001002400008004880B584B051
:100C440000AF78607B681B680D4A934213D10D4B4B
:100C54001B6E0C4A43F4803313660A4B1B6E03F479
:100C64008033FB60FB6800220021182002F01FF88B
:100C7400182002F038F800BF1037BD4680BD00BF11
:100C8400004001400010024080B588B000AF786099
:100C940007F10C0300221A605A609A60DA601A6144
:100CA4007B681B68114A93421CD1114BDB6C104AC0
:100CB40043F00103D3640E4BDB6C03F00103BB6010
:100CC400BB680423FB6002233B6100237B61002398
:100CD400BB610E23FB6107F10C0319464FF09040F2
:100CE40002F02AF800BF2037BD4680BD0040014015
:100CF4000010024080B5A4B000AF786007F17C0317
:100D040000221A605A609A60DA601A6107F11403CB
:100D140068220021184605F0D4FB7B681B68214A31
:100D240093423BD101237B6100237B6307F11403CE
:100D3400184603F009F90346002B01D0FFF7C4FE5F
:100D4400194B1B6E184A43F480431366164B1B6EF3
:100D540003F480433B613B69134BDB6C124A43F061
:100D64000103D364104BDB6C03F00103FB60FB68ED
:100D74004FF4C063FB670223C7F880300023C7F831
:100D840084300323C7F888300723C7F88C3007F171
:100D94007C0319464FF0904001F0CEFF00BF90371E
:100DA400BD4680BD003801400010024080B400AF51
:100DB40000BFFDE780B400AF00BFFDE780B400AF23
:100DC40000BFFDE780B400AF00BFFDE780B400AF13
:100DD40000BFFDE780B400AF00BFBD465DF8047BF3
:100DE400704780B400AF00BFBD465DF8047B704718
:100DF40080B400AF00BFBD465DF8047B704780B58A
:100E040000AF00F0A7F800BF80BD000080B500AFC0
:100E1400024800F028FE00BF80BD00BF2C00002067
:100E240080B500AF024803F0ABFE00BF80BD00BF39
:100E34009400002080B400AF064BD3F88830054AF4
:100E440043F47003C2F8883000BFBD465DF8047BEC
:100E5400704700BF00ED00E0DFF834D0FFF7EAFF91
:100E64000C480D490D4A002302E0D458C450043301
:100E7400C4188C42F9D30A4A0A4C002301E01360D7
:100E84000432A242FBD305F025FBFFF741FCFEE749
:100E940000800220000000200C0000209065000863
:100EA4000C00002070010020FEE780B582B000AF86
:100EB4000023FB71032001F0EFFE0F2000F00EF879
:100EC4000346002B02D00123FB7101E0FFF702FE71
:100ED400FB7918460837BD4680BD000080B584B054
:100EE40000AF78600023FB73174B1B78002B23D0D3
:100EF400164B1A68144B1B7819464FF47A73B3FBDC
:100F0400F1F3B2FBF3F3184601F009FF0346002B9B
:100F14000FD17B680F2B09D8002279684FF0FF307E
:100F240001F0C5FE0A4A7B68136007E00123FB73E6
:100F340004E00123FB7301E00123FB73FB7B1846F0
:100F44001037BD4680BD00BF08000020000000200F
:100F54000400002080B400AF064B1B781A46064BF1
:100F64001B681344044A136000BFBD465DF8047B4C
:100F7400704700BF080000206C01002080B400AF5F
:100F8400034B1B681846BD465DF8047B704700BFE1
:100F94006C01002080B483B000AF786039607B6856
:100FA4009B6823F47C123B681A437B689A6000BFF9
:100FB4000C37BD465DF8047B704780B483B000AF46
:100FC400786039607B689B6823F0E0723B681A4361
:100FD4007B689A6000BF0C37BD465DF8047B7047A0
:100FE40080B483B000AF78607B689B6803F0E073E3
:100FF40018460C37BD465DF8047B704780B487B053
:1010040000AFF860B9607A603B60FB6860331A46F1
:10101400BB689B0013447B617B691A68084B1340CF
:101024007A6802F0F8413A680A43134343F00042F5
:101034007B691A6000BF1C37BD465DF8047B7047AE
:1010440000F0FF0380B485B000AF786039607B683E
:1010540060331A463B689B001344FB60FB681B68C3
:1010640003F0F84318461437BD465DF8047B704717
:1010740080B487B000AFF860B9607A60FB68603311
:101084001A46BB689B0013447B617B691B6823F091
:1010940000427B681A437B691A6000BF1C37BD4657
:1010A4005DF8047B704780B483B000AF786039602A
:1010B4007B685B6923F000423B681A437B685A6192
:1010C40000BF0C37BD465DF8047B704780B483B025
:1010D40000AF78607B68DB6803F44063002B01D1C8
:1010E400012300E0002318460C37BD465DF8047B5D
:1010F400704780B487B000AFF860B9607A60FB686D
:1011040030331A46BB681B0A9B0003F00C031344DC
:101114007B617B691A68BB6803F01F031F2101FA16
:1011240003F3DB431A407B689B0E03F01F01BB688B
:1011340003F01F0301FA03F31A437B691A6000BF2B
:101144001C37BD465DF8047B704780B483B000AFA4
:1011540078607B68DB6C03F0C003002B01D10123B2
:1011640000E0002318460C37BD465DF8047B704749
:1011740080B487B000AFF860B9607A60FB6814335C
:101184001A46BB685B0E9B0003F0040313447B61A7
:101194007B691A68BB681B0D03F01F03072101FA62
:1011A40003F3DB431A40BB681B0D03F01F0379688C
:1011B40001FA03F31A437B691A6000BF1C37BD466A
:1011C4005DF8047B7047000080B485B000AFF86020
:1011D400B9607A60FB68D3F8B020BB68C3F312032C
:1011E400DB431A407B6803F018030849D940BB6805
:1011F4000B40C3F312031A43FB68C3F8B02000BFCB
:101204001437BD465DF8047B704700BFFFFF07003D
:1012140080B483B000AF78607B689B6823F0204380
:1012240023F03F037A68936000BF0C37BD465DF836
:10123400047B704780B483B000AF78607B689B68A0
:1012440003F00053B3F1005F01D1012300E0002358
:1012540018460C37BD465DF8047B704780B483B0F4
:1012640000AF78607B689B6823F0104323F03F0352
:1012740043F080527B689A6000BF0C37BD465DF82E
:10128400047B704780B483B000AF78607B689B6850
:1012940003F08053B3F1805F01D1012300E0002308
:1012A40018460C37BD465DF8047B704780B483B0A4
:1012B40000AF78607B689B6823F0004323F03F0312
:1012C40043F001027B689A6000BF0C37BD465DF8AD
:1012D400047B704780B483B000AF78607B689B6800
:1012E40023F0004323F03F0343F002027B689A603B
:1012F40000BF0C37BD465DF8047B704780B483B0F3
:1013040000AF78607B689B6803F00103012B01D177
:10131400012300E0002318460C37BD465DF8047B2A
:10132400704780B483B000AF78607B689B6803F03B
:101334000203022B01D1012300E0002318460C37DD
:10134400BD465DF8047B704780B483B000AF78601D
:101354007B689B6823F0004323F03F0343F00402BF
:101364007B689A6000BF0C37BD465DF8047B70470C
:1013740080B483B000AF78607B689B6823F000433F
:1013840023F03F0343F010027B689A6000BF0C37E0
:10139400BD465DF8047B704780B483B000AF7860CD
:1013A4007B689B6803F00403042B01D1012300E054
:1013B400002318460C37BD465DF8047B704780B4A3
:1013C40083B000AF78607B689B6823F0004323F010
:1013D4003F0343F020027B689A6000BF0C37BD4690
:1013E4005DF8047B704780B483B000AF78607B689D
:1013F4009B6803F00803082B01D1012300E00023BC
:1014040018460C37BD465DF8047B704780B588B03C
:1014140000AF78600023FB770023FB607B68002B20
:1014240001D1012329E17B681B69002B7B689B6D3B
:10143400002B09D17868FFF771FB7B680022DA651D
:101444007B68002283F854207B681B681846FFF7EA
:10145400F1FE0346002B04D07B681B681846FFF797
:10146400D7FE7B681B681846FFF70CFF0346002B6A
:1014740015D17B681B681846FFF7F0FE814B1B688B
:101484009B09814AA2FB03239B0901335B00FB6098
:1014940002E0FB68013BFB60FB68002BF9D17B6831
:1014A4001B681846FFF7EEFE0346002B0DD17B6840
:1014B4009B6D43F010027B689A657B68DB6D43F09B
:1014C40001027B68DA650123FB777B681B68184699
:1014D400FFF762FF78617B689B6D03F01003002BBC
:1014E40040F0C2807B69002B40F0BE807B689B6D1E
:1014F40023F4817343F002027B689A657B681B685E
:101504001846FFF7FBFE0346002B0BD15F48FFF79D
:10151400F5FE0346002B05D17B685B6819465C48E1
:10152400FFF738FD7B685B7E5A037B685B6B1A436D
:101534007B68DB681A437B689B681A437B6893F873
:1015440020301B041343BB617B6893F82030012BCC
:1015540006D17B685B6A013B5B04BA691343BB61D8
:101564007B689B6A002B09D07B689B6A03F47072CA
:101574007B68DB6A1343BA691343BB617B681B68EE
:10158400DA68444B13407A681268B9690B43D36034
:101594007B681B681846FFF726FF38617B69002BC0
:1015A40040D13B69002B3DD17B68DA6C7B681B7EA4
:1015B4009B031A437B6893F830305B001343BB6191
:1015C4007B681B68DB6823F4804323F006037A6896
:1015D4001268B9690B43D3607B6893F83830012BE8
:1015E40018D17B681B681B6923F4FF6323F0040391
:1015F4007A68D16B7A68126C11437A68526C114321
:101604007A68926C0A431A437B681B6842F00102B1
:101614001A6107E07B681B681A697B681B6822F003
:1016240001021A617B681B69012B0CD17B681B6862
:101634001B6B23F00F017B68DB695A1E7B681B68F8
:101644000A431A6307E07B681B681A6B7B681B6894
:1016540022F00F021A637B689B6D23F0030343F0AF
:1016640001027B689A6507E07B689B6D43F010027A
:101674007B689A650123FB77FB7F18462037BD46BC
:1016840080BD00BF00000020632D3E050000045013
:101694000003045007C0F0FF80B584B000AF786049
:1016A4007B68002B01D101230EE17B689B6D43F025
:1016B40002027B689A650321786800F099FF03466B
:1016C400FB737B681B68DA687B681B6842F4001252
:1016D400DA60FB7B002B0AD1786801F0CBF8034673
:1016E400FB73FB7B002B02D17B6801229A657B682C
:1016F4001B685B687A68126823F4FF6323F00703AE
:1017040053607B681B6840F2FF721A607B681B6839
:101714009A687B681B6822F0A0429A607B681B6809
:101724009A687B681B6842F000529A607B681B6869
:10173400DA687B681B6802F08022DA607B681B68C9
:10174400DA687B681B6842F00042DA607B681B68D9
:101754001B697A68126823F4FF6323F0070313619B
:101764007B681B685A697B681B6802F080425A6177
:101774007B681B689A697B681B6802F078429A61EF
:101784007B681B681A6A7B681B6802F0F0221A6285
:101794007B681B685A6A7B681B6802F0FF225A62E6
:1017A4007B681B689A6A7B681B6802F0FF229A6256
:1017B4007B681B68196B7B681A68454B0B40136385
:1017C4007B681B68596B7B681A68424B0B405363F8
:1017D4007B681B68996B7B681A683E4B0B4093636C
:1017E4007B681B68DB6B7A68126823F4FB6323F065
:1017F4000703D3637B681B68196E7B681A68364BD2
:101804000B4013667B681B68596E7B681A68324B01
:101814000B4053667B681B68996E7B681A682E4B75
:101824000B4093667B681B68D96E7B681A682A4BE9
:101834000B40D3667B681B68D3F8A0307A681268C3
:10184400DB0CDB04C2F8A0307B681B68D3F8A4303F
:101854007A681268DB0CDB04C2F8A4307B681B686E
:10186400D3F8B0307A681268DB0CDB04C2F8B0300D
:101874007B681B68D3F8B4207B681B6822F07F1256
:10188400C3F8B4201548FFF739FD0346002B0AD1ED
:10189400134B9B68124A23F0FF7323F48033936045
:1018A4007868FFF7ABF97B680022DA657B68002271
:1018B4001A667B6800225A667B6800229A657B68F8
:1018C400002283F85420FB7B18461037BD4680BDA8
:1018D400300882E0200882E000F0FF03000004509A
:1018E4000003045080B584B000AF78607B681B6847
:1018F4001846FFF751FD0346002B40F0A0807B689B
:1019040093F85430012B01D102239BE07B68012220
:1019140083F85420786800F027FF0346FB73FB7BB1
:10192400002B40F087807B689B6D23F4706323F069
:10193400010343F480727B689A657B689B6D03F4B2
:101944008053002B06D07B68DB6D23F006027B6896
:10195400DA6502E07B680022DA657B681B681C227A
:101964001A607B68002283F854207B681B685A68DD
:101974007B681B6822F01C025A607B685B69082B39
:1019840008D17B681B685A687B681B6842F00802B0
:101994005A6008E07B681B685A687B681B6842F0E1
:1019A40004025A6000BF7B685B6B002B07D17B6825
:1019B4001B685A687B681B6842F010025A607B6897
:1019C4001B68DB6803F00073002B2DD07B689B6DD4
:1019D40023F4405343F480527B689A657B685B69C7
:1019E400082B10D17B681B685A687B681B6822F03F
:1019F40020025A607B681B685A687B681B6842F047
:101A040040025A6010E07B681B685A687B681B6858
:101A140022F040025A607B681B685A687B681B6826
:101A240042F020025A6000BF7B681B681846FFF72B
:101A34008BFC06E07B68002283F8542001E002233B
:101A4400FB73FB7B18461037BD4680BD80B483B062
:101A540000AF78607B681B681B6C18460C37BD466A
:101A64005DF8047B704780B588B000AF78600023D0
:101A7400FB617B681B681B68BB617B681B685B68D8
:101A84007B61BB6903F00203002B17D07B6903F071
:101A94000203002B12D07B689B6D03F01003002B14
:101AA40005D17B689B6D43F400627B689A65786816
:101AB40000F0F4FF7B681B6802221A60BB6903F024
:101AC4000403002B04D07B6903F00403002B09D129
:101AD400BB6903F00803002B5ED07B6903F00803A5
:101AE400002B59D07B689B6D03F01003002B05D1AC
:101AF4007B689B6D43F400727B689A657B681B6806
:101B04001846FFF7E3FA0346002B3ED07B681B68B8
:101B1400DB683B613B6903F40053002B35D17B68E0
:101B24001B681B6803F00803082B2ED17B681B6815
:101B34001846FFF731FC0346002B1AD17B681B685B
:101B44005A687B681B6822F00C025A607B689B6DA4
:101B540023F480727B689A657B689B6D03F48053E1
:101B6400002B12D17B689B6D43F001027B689A6560
:101B74000BE07B689B6D43F010027B689A657B6881
:101B8400DB6D43F001027B68DA657868FEF782FD5D
:101B94007B681B680C221A60BB6903F02003002BCE
:101BA40004D07B6903F02003002B09D1BB6903F047
:101BB4004003002B72D07B6903F04003002B6DD0EF
:101BC4007B689B6D03F01003002B05D17B689B6D34
:101BD40043F400527B689A657B681B681846FFF7DC
:101BE400B4FAF8607B681B681846FFF76FFAB860B0
:101BF4007B681B68DB683B61FB68002B47D03B6953
:101C040003F00073002B07D0BB68002B3FD03B6967
:101C140003F40053002B3AD17B681B681B6803F064
:101C24004003402B33D13B6903F40013002B2ED126
:101C34007B681B681846FFF7D6FB0346002B1AD1B6
:101C44007B681B685A687B681B6822F060025A60D4
:101C54007B689B6D23F480527B689A657B689B6DDF
:101C640003F48073002B12D17B689B6D43F0010257
:101C74007B689A650BE07B689B6D43F010027B6880
:101C84009A657B68DB6D43F001027B68DA657868EE
:101C940000F0DCFE7B681B6860221A60BB6903F0FD
:101CA4008003002B11D07B6903F08003002B0CD040
:101CB4007B689B6D43F480327B689A65786800F09A
:101CC40086F87B681B6880221A60BB6903F4807302
:101CD400002B12D07B6903F48073002B0DD07B683A
:101CE4009B6D43F400327B689A65786800F0C2FE0D
:101CF4007B681B684FF480721A60BB6903F400733D
:101D0400002B12D07B6903F40073002B0DD07B6889
:101D14009B6D43F480227B689A65786800F0B4FE7A
:101D24007B681B684FF400721A60BB6903F01003F0
:101D3400002B2AD07B6903F01003002B25D07B688D
:101D44005B6B002B02D10123FB6108E07B681B68FD
:101D5400DB6803F00103002B01D00123FB61FB6965
:101D6400012B0ED17B689B6D43F480627B689A657E
:101D74007B68DB6D43F002027B68DA65786800F00B
:101D840030F87B681B6810221A60BB6903F4806317
:101D9400002B18D07B6903F48063002B13D07B687D
:101DA4009B6D43F480427B689A657B68DB6D43F0EE
:101DB40008027B68DA657B681B684FF480621A60EE
:101DC400786800F04DFE00BF2037BD4680BD80B46A
:101DD40083B000AF786000BF0C37BD465DF8047B6C
:101DE400704780B483B000AF786000BF0C37BD4645
:101DF4005DF8047B7047000080B5B6B000AF786032
:101E04003960002387F8D7300023BB607B6893F8E0
:101E14005430012B01D10223D5E37B68012283F8DE
:101E240054207B681B681846FFF7B6FA0346002B5C
:101E340040F0BA833B685B68C7F8D0303B685B68A6
:101E4400052B24D83B685B68023B032B1BD801A2FB
:101E540052F823F0691E0008711E0008791E00085C
:101E6400811E00080C23C7F8D03010E01223C7F8F5
:101E7400D0300CE01823C7F8D03008E04FF480735A
:101E8400C7F8D03003E00623C7F8D03000BF7B6822
:101E940018683B681B681A46D7F8D010FFF729F971
:101EA4007B681B681846FFF777FAC7F8CC007B6895
:101EB4001B681846FFF797FAC7F8C800D7F8CC3064
:101EC400002B40F0BF81D7F8C830002B40F0BA8116
:101ED4003B689B68B3F1004F0FD17B6818683B687F
:101EE4001B6800221946FFF743F97B681B684FF013
:101EF40000411846FFF7D7F80EE07B6818683B6886
:101F040019683B689B681A46FFF732F97B681B68BF
:101F140000211846FFF7C7F83B685A697B681B68BD
:101F2400DB68DB0803F003035B0002FA03F3C7F882
:101F3400C4303B681B69042B0AD07B6818683B6873
:101F440019693B681A68D7F8C430FFF757F879E184
:101F54007B681B6800211846FFF774F80346C3F337
:101F64001203002B0AD17B681B6800211846FFF777
:101F740069F803469B0E03F01F021EE07B681B6892
:101F840000211846FFF75EF80346C7F8B830D7F8C3
:101F9400B83093FAA3F3C7F8B430D7F8B430C7F81D
:101FA400BC30D7F8BC30002B01D1202304E0D7F893
:101FB400BC30B3FA83F3DBB21A463B681B68C3F345
:101FC4001203002B05D13B681B689B0E03F01F0313
:101FD40018E03B681B68C7F8AC30D7F8AC3093FA0C
:101FE400A3F3C7F8A830D7F8A830C7F8B030D7F8AB
:101FF400B030002B01D1202304E0D7F8B030B3FA7D
:1020040083F3DBB29A4206D17B681B68002200216D
:102014001846FFF72DF87B681B6801211846FFF767
:1020240011F80346C3F31203002B0AD17B681B6823
:1020340001211846FFF706F803469B0E03F01F0222
:102044001EE07B681B6801211846FEF7FBFF034670
:10205400C7F8A030D7F8A03093FAA3F3C7F89C30A0
:10206400D7F89C30C7F8A430D7F8A430002B01D19E
:10207400202304E0D7F8A430B3FA83F3DBB21A4682
:102084003B681B68C3F31203002B05D13B681B6834
:102094009B0E03F01F0318E03B681B68C7F89430DD
:1020A400D7F8943093FAA3F3C7F89030D7F8903068
:1020B400C7F89830D7F89830002B01D1202304E0DA
:1020C400D7F89830B3FA83F3DBB29A4206D17B682F
:1020D4001B68002201211846FEF7CAFF7B681B68B3
:1020E40002211846FEF7AEFF0346C3F31203002B8A
:1020F4000AD17B681B6802211846FEF7A3FF03463A
:102104009B0E03F01F021EE07B681B680221184629
:10211400FEF798FF0346C7F88830D7F8883093FA5B
:10212400A3F3C7F88430D7F88430C7F88C30D7F8D5
:102134008C30002B01D1202304E0D7F88C30B3FA83
:1021440083F3DBB21A463B681B68C3F31203002B0C
:1021540005D13B681B689B0E03F01F0314E03B682A
:102164001B68FB67FB6F93FAA3F3BB67BB6FC7F8EE
:102174008030D7F88030002B01D1202304E0D7F839
:102184008030B3FA83F3DBB29A4206D17B681B68D2
:10219400002202211846FEF76BFF7B681B680321AF
:1021A4001846FEF74FFF0346C3F31203002B0AD170
:1021B4007B681B6803211846FEF744FF03469B0E09
:1021C40003F01F0217E07B681B6803211846FEF723
:1021D40039FF03463B673B6F93FAA3F3FB66FB6E41
:1021E4007B677B6F002B01D1202303E07B6FB3FA65
:1021F40083F3DBB21A463B681B68C3F31203002B5C
:1022040005D13B681B689B0E03F01F0311E03B687C
:102214001B687B667B6E93FAA3F33B663B6EBB66DF
:10222400BB6E002B01D1202303E0BB6EB3FA83F312
:10223400DBB29A4206D17B681B6800220321184650
:10224400FEF716FF7B681B681846FFF757F803462E
:10225400002B40F03F817B6818683B6819683B6835
:10226400DB681A46FEF7B0FF3B68DB688E4A934290
:1022740040F030817B6818683B681B68C3F3120325
:10228400002B0BD13B681B689B0E013303F01F032B
:10229400092B94BF01230023DBB219E03B681B68C0
:1022A400BB65BB6D93FAA3F37B657B6DFB65FB6D2F
:1022B400002B01D1202303E0FB6DB3FA83F3DBB2DF
:1022C400013303F01F03092B94BF01230023DBB266
:1022D400002B79D03B681B68C3F31203002B07D192
:1022E4003B681B689B0E01339B0603F0F84215E024
:1022F4003B681B68FB64FB6C93FAA3F3BB64BB6C85
:102304003B653B6D002B01D1202303E03B6DB3FA09
:1023140083F3DBB201339B0603F0F8423B681B688E
:10232400C3F31203002B09D13B681B689B0E0133D6
:1023340003F01F03012101FA03F317E03B681B6854
:102344003B643B6C93FAA3F3FB63FB6B7B647B6C96
:10235400002B01D1202303E07B6CB3FA83F3DBB2BF
:10236400013303F01F03012101FA03F342EA0301DD
:102374003B681B68C3F31203002B0AD13B681B683C
:102384009B0E013303F01F0213465B0013441B052D
:1023940018E03B681B687B637B6B93FAA3F33B6396
:1023A4003B6BBB63BB6B002B01D1202303E0BB6BF6
:1023B400B3FA83F3DBB2013303F01F0213465B006D
:1023C40013441B050B4380E03B681B68C3F31203F3
:1023D400002B07D13B681B689B0E01339B0603F05F
:1023E400F84215E03B681B68BB62BB6A93FAA3F32F
:1023F4007B627B6AFB62FB6A002B01D1202303E032
:10240400FB6AB3FA83F3DBB201339B0603F0F842B1
:102414003B681B68C3F31203002B09D13B681B689C
:102424009B0E013303F01F03012101FA03F317E0AC
:102434003B681B68FB61FB6993FAA3F3BB61BB694F
:102444003B623B6A002B01D1202303E03B6AB3FAD1
:1024540083F3DBB2013303F01F03012101FA03F319
:1024640042EA03013B681B68C3F31203002B0DD13E
:102474003B681B689B0E013303F01F0213465B008D
:1024840013441E3B1B0543F000731DE03B681B68AF
:102494003B613B6993FAA3F3FB60FB687B617B6957
:1024A400002B03D1202305E000007F407B69B3FAB1
:1024B40083F3DBB2013303F01F0213465B001344C2
:1024C4001E3B1B0543F000730B433A6892681946A0
:1024D400FEF74EFE3B681A683D4B1340002B6CD050
:1024E4003C48FEF77DFDC7F8C0003B681B683A4ACC
:1024F400934227D1D7F8C03003F40003002B21D135
:102504007B681B68354A934257D1D7F8C03043F4EF
:10251400000319462F48FEF750FD314B1B689B09F9
:10252400304AA2FB03239B095A1C13465B00134445
:102534009B00BB6002E0BB68013BBB60BB68002B37
:10254400F9D13AE03B681B68274A934213D1D7F884
:10255400C03003F08073002B0DD17B681B681F4AC9
:1025640093422AD1D7F8C03043F0807319461948F2
:10257400FEF723FD21E03B681B681C4A93421CD1F3
:10258400D7F8C03003F48003002B16D17B681B6896
:10259400124A934211D1D7F8C03043F4800319464C
:1025A4000C48FEF70AFD08E07B689B6D43F02002AF
:1025B4007B689A65012387F8D7307B68002283F80B
:1025C400542097F8D7301846D837BD4680BD00BF91
:1025D4000000088000030450000052C700000450AB
:1025E40000000020632D3E05000084CB0100008024
:1025F40080B588B000AF786039600023FB613B6828
:10260400BB617B681B681846FEF7C6FE38617B68B1
:102614001B681846FEF7E7FEF8603B69002B03D100
:10262400FB68002B00F098807B681B68DB6803F074
:102634000073002B2AD07B685B7E012B26D17B683C
:102644001B7E012B22D10123BB6114E0FB69454AA7
:1026540093420DD97B689B6D43F010027B689A65A9
:102664007B68DB6D43F001027B68DA65012374E06B
:10267400FB690133FB617B681B681B6803F0400343
:10268400402BE3D17B681B6840221A60BB69022B94
:1026940014D07B681B681846FEF77EFE0346002BA9
:1026A4000CD07B681B681846FEF73BFE0346002BE4
:1026B40004D17B681B681846FEF75AFEBB69012BE0
:1026C40014D07B681B681846FEF78DFE0346002B6A
:1026D4000CD07B681B681846FEF723FE0346002BCC
:1026E40004D17B681B681846FEF769FEBB69022BA0
:1026F40005D0BB69032B05D10C237B6105E00823BE
:102704007B6102E004237B6100BFFEF737FCB86005
:102714001BE0FEF733FC0246BB68D31A052B14D921
:102724007B681B689A687B691340002B0DD07B681B
:102734009B6D43F010027B689A657B68DB6D43F008
:1027440001027B68DA65012307E07B681B689A68ED
:102754007B691340002BDCD1002318462037BD468B
:1027640080BD00BFFFFF3FA380B584B000AF786099
:102774000023BB607B681B681846FEF7BFFD034659
:10278400002B69D17B681B689A68364B1340002B79
:102794000DD07B689B6D43F010027B689A657B6863
:1027A400DB6D43F001027B68DA65012355E07B6849
:1027B4001B681846FEF77AFD2B48FEF711FC03460A
:1027C40003F40003002B13D0284B1B689B09284AF1
:1027D400A2FB03239B095A1C13465B0013449B0072
:1027E400BB6002E0BB68013BBB60BB68002BF9D156
:1027F400FEF7C4FBF86028E07B681B681846FEF708
:102804007DFD0346002B04D17B681B681846FEF748
:102814004DFDFEF7B3FB0246FB68D31A022B14D915
:102824007B681B681B6803F00103012B0DD07B68D8
:102834009B6D43F010027B689A657B68DB6D43F007
:1028440001027B68DA65012307E07B681B681B686B
:1028540003F00103012BCFD1002318461037BD46E6
:1028640080BD00BF3F000080000304500000002032
:10287400632D3E0580B584B000AF78607B681B682B
:102884001846FEF74EFDF8607B681B681846FEF795
:1028940035FD0346002B47D0FB68002B44D17B68F1
:1028A4001B689B6803F00D03012B0CD17B681B682C
:1028B4001846FEF70FFD7B681B6803221A60FEF7BB
:1028C4005DFBB86029E07B689B6D43F010027B6878
:1028D4009A657B68DB6D43F001027B68DA6501234E
:1028E40023E0FEF74BFB0246BB68D31A022B14D934
:1028F4007B681B689B6803F00103002B0DD07B6889
:102904009B6D43F010027B689A657B68DB6D43F036
:1029140001027B68DA65012307E07B681B689B681A
:1029240003F00103002BDCD1002318461037BD4609
:1029340080BD80B483B000AF786039607B689B68E9
:1029440023F0404323F03F033A6802F080421343EC
:1029540043F000427B689A6000BF0C37BD465DF8C7
:10296400047B704780B483B000AF78607B689B6859
:1029740003F00043B3F1004F01D1012300E0002331
:1029840018460C37BD465DF8047B704780B584B0AB
:1029940000AF786039600023BB607B6893F85430E3
:1029A400012B01D102234DE07B68012283F85420DE
:1029B4007868FFF75FFF0346FB73FB7B002B36D180
:1029C4007B689B6D23F4885323F0020343F00202D7
:1029D4007B689A657B681B6839681846FFF7A9FF0E
:1029E40014E0BB680133BB60BB68B3F5912F0DD312
:1029F4007B689B6D23F0120343F010027B689A6599
:102A04007B68002283F8542001231BE07B681B6849
:102A14001846FFF7A7FF0346002BE2D17B689B6DA6
:102A240023F0030343F001027B689A6505E07B68A9
:102A34009B6D43F010027B689A657B68002283F8E3
:102A44005420FB7B18461037BD4680BD80B483B04C
:102A540000AF786000BF0C37BD465DF8047B70475B
:102A640080B483B000AF786000BF0C37BD465DF81A
:102A7400047B704780B483B000AF786000BF0C372C
:102A8400BD465DF8047B704780B483B000AF7860C6
:102A940000BF0C37BD465DF8047B704780B483B03B
:102AA40000AF786000BF0C37BD465DF8047B70470B
:102AB40080B485B000AF78607B6803F00703FB60E7
:102AC4000C4BDB68BB60BA684FF6FF031340BB6076
:102AD400FB681A02BB68134343F0BF6343F400333B
:102AE400BB60044ABB68D36000BF1437BD465DF8C1
:102AF400047B704700ED00E080B400AF044BDB685A
:102B04001B0A03F007031846BD465DF8047B7047B3
:102B140000ED00E080B483B000AF0346FB7197F989
:102B24000730002B0BDBFB7903F01F02074997F9F1
:102B340007305B09012000FA02F241F8232000BFAC
:102B44000C37BD465DF8047B704700BF00E100E030
:102B540080B483B000AF0346FB7197F90730002BB4
:102B640012DBFB7903F01F020A4997F907305B096E
:102B7400012000FA02F2203341F82320BFF34F8FE3
:102B840000BFBFF36F8F00BF00BF0C37BD465DF8B9
:102B9400047B704700E100E080B483B000AF0346DB
:102BA4003960FB7197F90730002B0ADB3B68DAB216
:102BB4000C4997F907301201D2B20B4483F8002371
:102BC4000AE03B68DAB20849FB7903F00F03043BDF
:102BD4001201D2B20B441A7600BF0C37BD465DF821
:102BE400047B704700E100E000ED00E080B489B0B0
:102BF40000AFF860B9607A60FB6803F00703FB611B
:102C0400FB69C3F10703042B28BF0423BB61FB69E1
:102C14000433062B02D9FB69033B00E000237B61EC
:102C24004FF0FF32BB6902FA03F3DA43BB681A4080
:102C34007B699A404FF0FF317B6901FA03F3D94372
:102C44007B680B40134318462437BD465DF8047B6C
:102C54007047000080B582B000AF78607B68013BAC
:102C6400B3F1807F01D301230FE00A4A7B68013B63
:102C740053600F214FF0FF30FFF78EFF054B00220A
:102C84009A60044B07221A60002318460837BD4691
:102C940080BD00BF10E000E080B582B000AF786076
:102CA4007868FFF705FF00BF0837BD4680BD80B5D3
:102CB40086B000AF0346B9607A60FB7300237B6182
:102CC400FFF71AFF78617A68B9687869FFF78EFFB1
:102CD400024697F90F3011461846FFF75DFF00BF13
:102CE4001837BD4680BD80B582B000AF0346FB7186
:102CF40097F907301846FFF70DFF00BF0837BD46A8
:102D040080BD80B582B000AF0346FB7197F90730F0
:102D14001846FFF71DFF00BF0837BD4680BD80B5CC
:102D240082B000AF78607868FFF794FF03461846D6
:102D34000837BD4680BD000080B487B000AF78601E
:102D4400396000237B6154E13B681A6801217B6987
:102D540001FA03F31340FB60FB68002B00F046818B
:102D64003B685B6803F00303012B05D03B685B6899
:102D740003F00303022B30D17B689B683B617B69C2
:102D84005B00032202FA03F3DB433A6913403B611D
:102D94003B68DA687B695B0002FA03F33A69134320
:102DA4003B617B683A699A607B685B683B6101229E
:102DB4007B6902FA03F3DB433A6913403B613B68E6
:102DC4005B681B0903F001027B6902FA03F33A69A9
:102DD40013433B617B683A695A603B685B6803F064
:102DE4000303032B17D07B68DB683B617B695B00C3
:102DF400032202FA03F3DB433A6913403B613B6865
:102E04009A687B695B0002FA03F33A6913433B61F6
:102E14007B683A69DA603B685B6803F00303022B62
:102E240023D17B69DA087B68083253F822303B618E
:102E34007B6903F007039B000F2202FA03F3DB43D1
:102E44003A6913403B613B681A697B6903F00703E5
:102E54009B0002FA03F33A6913433B617B69DA0886
:102E64007B680832396943F822107B681B683B6130
:102E74007B695B00032202FA03F3DB433A691340E4
:102E84003B613B685B6803F003027B695B0002FA09
:102E940003F33A6913433B617B683A691A603B6800
:102EA4005B6803F44033002B00F0A080584B1B6E8A
:102EB400574A43F001031366554B1B6E03F001039D
:102EC400BB60BB68534A7B699B08023352F82330CA
:102ED4003B617B6903F003039B000F2202FA03F3B7
:102EE400DB433A6913403B617B68B3F1904F19D0DF
:102EF4007B68494A934213D07B68484A93420DD079
:102F04007B68474A934207D07B68464A934201D183
:102F1400042308E0072306E0032304E0022302E07D
:102F2400012300E000237A6902F003029200934037
:102F34003A6913433B6137497B699B0802333A6919
:102F440041F82320384B9B683B61FB68DB433A69BB
:102F540013403B613B685B6803F48013002B03D090
:102F64003A69FB6813433B612F4A3B6993602E4BDC
:102F7400DB683B61FB68DB433A6913403B613B68B8
:102F84005B6803F40013002B03D03A69FB68134316
:102F94003B61254A3B69D360234B5B683B61FB681B
:102FA400DB433A6913403B613B685B6803F40033DD
:102FB400002B03D03A69FB6813433B611A4A3B690F
:102FC4005360194B1B683B61FB68DB433A69134050
:102FD4003B613B685B6803F48033002B03D03A69A0
:102FE400FB6813433B61104A3B6913607B690133FF
:102FF4007B613B681A687B6922FA03F3002B7FF438
:10300400A3AE00BF00BF1C37BD465DF8047B70470C
:10301400001002400000014000040048000800487D
:10302400000C0048001000480004014080B487B040
:1030340000AF7860396000237B61B7E001227B69CF
:1030440002FA03F33A6813403B613B69002B00F03A
:10305400AA805D4A7B699B08023352F82330FB60E7
:103064007B6903F003039B000F2202FA03F3FA685F
:103074001340FB607B68B3F1904F19D07B68534ACF
:10308400934213D07B68524A93420DD07B68514AD5
:10309400934207D07B68504A934201D1042308E04D
:1030A400072306E0032304E0022302E0012300E0F7
:1030B40000237A6902F0030292009340FA689A426C
:1030C40032D1464B1A683B69DB43444913400B60D9
:1030D400424B5A683B69DB43404913404B603F4BCA
:1030E400DA683B69DB433D491340CB603B4B9A684C
:1030F4003B69DB43394913408B607B6903F003036D
:103104009B000F2202FA03F3FB602F4A7B699B08A2
:10311400023352F82310FB68DA432B487B699B087F
:103124000A40023340F823207B681A687B695B00FD
:10313400032101FA03F31A437B681A607B69DA08F6
:103144007B68083253F822107B6903F007039B0065
:103154000F2202FA03F3DB437A69D20819407B6831
:10316400083243F822107B689A687B695B0003216C
:1031740001FA03F3DB431A407B689A607B685A6860
:1031840001217B6901FA03F3DB431A407B685A602F
:103194007B68DA687B695B00032101FA03F3DB4394
:1031A4001A407B68DA607B6901337B613A687B692A
:1031B40022FA03F3002B7FF441AF00BF00BF1C379A
:1031C400BD465DF8047B70470000014000040048E0
:1031D40000080048000C00480010004800040140AA
:1031E40080B483B000AF78600B467B8013467B705D
:1031F4007B78002B03D07A887B689A6102E07A8816
:103204007B689A6200BF0C37BD465DF8047B70474B
:1032140080B400AF044B1B6803F4C0631846BD467A
:103224005DF8047B704700BF0070004080B485B037
:1032340000AF78607B68B3F5007F30D1234B1B6807
:1032440003F4C063B3F5007F38D0204B1B6823F42C
:10325400C0631E4A43F4007313601D4B1B68322283
:1032640002FB03F31B4AA2FB03239B0C0133FB6009
:1032740002E0FB68013BFB60144B5B6903F4806371
:10328400B3F5806F02D1FB68002BF2D10F4B5B6961
:1032940003F48063B3F5806F10D103230FE00B4B6D
:1032A4001B6803F4C063B3F5806F07D0074B1B683A
:1032B40023F4C063054A43F4806313600023184673
:1032C4001437BD465DF8047B704700BF00700040B2
:1032D4000000002083DE1B4380B588B000AF786017
:1032E4007B68002B02D1012300F002BC964B9B6843
:1032F40003F00C03BB61944BDB6803F003037B61B5
:103304007B681B6803F01003002B00F0E480BB69AA
:10331400002B07D0BB690C2B40F08B807B69012B01
:1033240040F08780884B1B6803F00203002B05D014
:103334007B689B69002B01D10123D9E37B681A6A5E
:10334400814B1B6803F00803002B04D07E4B1B68E1
:1033540003F0F00305E07C4BD3F894301B0903F031
:10336400F003934223D27B681B6A184600F08CFD5D
:103374000346002B01D00123BAE3734B1B68724A46
:1033840043F008031360704B1B6823F0F0027B6862
:103394001B6A6D4913430B606B4B5B6823F47F42DC
:1033A4007B68DB691B02684913434B6025E0664B6D
:1033B4001B68654A43F008031360634B1B6823F0E2
:1033C400F0027B681B6A604913430B605E4B5B68C9
:1033D40023F47F427B68DB691B025B4913434B6028
:1033E400BB69002B09D17B681B6A184600F04CFDB1
:1033F4000346002B01D001237AE300F081FC02464E
:10340400514B9B681B0903F00F035049CB5C03F03D
:103414001F0322FA03F34E4A13604E4B1B681846EF
:10342400FDF75CFD0346FB73FB7B002B52D0FB7B5B
:103434005EE37B689B69002B32D0434B1B68424A96
:1034440043F001031360FDF799FD386108E0FDF7CF
:1034540095FD02463B69D31A022B01D9032347E3A6
:10346400394B1B6803F00203002BF0D0364B1B686A
:10347400354A43F008031360334B1B6823F0F00212
:103484007B681B6A304913430B602F4B5B6823F442
:103494007F427B68DB691B022B4913434B601AE0B4
:1034A400294B1B68284A23F001031360FDF766FDCE
:1034B400386108E0FDF762FD02463B69D31A022B2E
:1034C40001D9032314E3204B1B6803F00203002BF0
:1034D400F0D100E000BF7B681B6803F00103002B00
:1034E40073D0BB69082B05D0BB690C2B0ED17B694B
:1034F400032B0BD1144B1B6803F40033002B63D054
:103504007B685B68002B5FD10123F1E27B685B6819
:10351400B3F5803F06D10C4B1B680B4A43F4803350
:10352400136025E07B685B68B3F5A02F14D1064BCC
:103534001B68054A43F480231360034B1B68024A4B
:1035440043F48033136013E0001002403865000830
:103554000000002004000020A04B1B689F4A23F4B5
:10356400803313609D4B1B689C4A23F480231360B3
:103574007B685B68002B13D0FDF700FD386108E021
:10358400FDF7FCFC02463B69D31A642B01D90323E3
:10359400AEE2924B1B6803F40033002BF0D014E02E
:1035A400FDF7ECFC386108E0FDF7E8FC02463B69F6
:1035B400D31A642B01D903239AE2884B1B6803F4C2
:1035C4000033002BF0D100E000BF7B681B6803F0E0
:1035D4000203002B60D0BB69042B05D0BB690C2B04
:1035E40019D17B69022B16D17C4B1B6803F48063D1
:1035F400002B05D07B68DB68002B01D1012377E227
:10360400764B5B6823F0FE427B681B691B0673499B
:1036140013434B6040E07B68DB68002B23D06F4B87
:103624001B686E4A43F480731360FDF7A7FC38618E
:1036340008E0FDF7A3FC02463B69D31A022B01D92B
:10364400032355E2654B1B6803F48063002BF0D021
:10365400624B5B6823F0FE427B681B691B065F4973
:1036640013434B6018E05D4B1B685C4A23F4807382
:103674001360FDF783FC386108E0FDF77FFC024628
:103684003B69D31A022B01D9032331E2534B1B6844
:1036940003F48063002BF0D17B681B6803F00803FC
:1036A400002B3CD07B685B69002B1CD04B4BD3F8C0
:1036B40094304A4A43F00103C2F89430FDF75EFCAB
:1036C400386108E0FDF75AFC02463B69D31A022B25
:1036D40001D903230CE2414BD3F8943003F00203E5
:1036E400002BEFD01BE03D4BD3F894303B4A23F042
:1036F4000103C2F89430FDF741FC386108E0FDF79E
:103704003DFC02463B69D31A022B01D90323EFE1A6
:10371400324BD3F8943003F00203002BEFD17B68D3
:103724001B6803F00403002B00F0A6800023FB7742
:103734002A4B9B6D03F08053002B0DD1274B9B6DBF
:10374400264A43F080539365244B9B6D03F08053CA
:10375400BB60BB680123FB77214B1B6803F48073B8
:10376400002B18D11E4B1B681D4A43F48073136051
:10377400FDF704FC386108E0FDF700FC02463B69F4
:10378400D31A022B01D90323B2E1154B1B6803F4AE
:103794008073002BF0D07B689B68012B08D10F4B02
:1037A400D3F890300D4A43F00103C2F8903029E079
:1037B4007B689B68052B15D1084BD3F89030074ADA
:1037C40043F00403C2F89030044BD3F89030034A1A
:1037D40043F00103C2F8903014E000BF001002402F
:1037E400007000409A4BD3F89030994A23F00103BB
:1037F400C2F89030964BD3F89030954A23F00403E6
:10380400C2F890307B689B68002B16D0FDF7B6FB9E
:1038140038610AE0FDF7B2FB02463B69D31A41F274
:103824008832934201D9032362E1894BD3F8903063
:1038340003F00203002BEDD015E0FDF79FFB386188
:103844000AE0FDF79BFB02463B69D31A41F288323A
:10385400934201D903234BE17D4BD3F8903003F01D
:103864000203002BEDD1FB7F012B05D1784B9B6D1F
:10387400774A23F0805393657B681B6803F0200329
:10388400002B3CD07B685B6A002B1CD0704BD3F8B8
:1038940098306F4A43F00103C2F89830FDF76EFB8D
:1038A400386108E0FDF76AFB02463B69D31A022B34
:1038B40001D903231CE1664BD3F8983003F00203CB
:1038C400002BEFD01BE0624BD3F89830604A23F012
:1038D4000103C2F89830FDF751FB386108E0FDF7A9
:1038E4004DFB02463B69D31A022B01D90323FFE0A7
:1038F400574BD3F8983003F00203002BEFD17B68C9
:103904009B6A002B00F0F3807B689B6A022B40F0DB
:10391400C9804F4BDB687B617B6903F003027B68E2
:10392400DB6A9A422CD17B6903F070027B681B6BC3
:10393400013B1B019A4223D17B6903F4FE427B685D
:103944005B6B1B029A421BD17B6903F078427B6854
:103954009B6BDB069A4213D17B6903F4C0027B683C
:10396400DB6B5B08013B5B059A4209D17B6903F081
:10397400C0627B681B6C5B08013B5B069A426BD0A0
:10398400BB690C2B62D0324B1B6803F08063002BA5
:1039940001D00123ACE02E4B1B682D4A23F0807329
:1039A4001360FDF7EBFA386108E0FDF7E7FA024629
:1039B4003B69D31A022B01D9032399E0244B1B68DA
:1039C40003F00073002BF0D1214BDA68214B134034
:1039D4007A68D16A7A68126B013A120111437A68E3
:1039E400526B120211437A68D26B5208013A5205A3
:1039F40011437A68126C5208013A520611437A68EC
:103A0400926BD2060A4312491343CB60104B1B68D6
:103A14000F4A43F0807313600D4BDB680C4A43F08C
:103A24008073D360FDF7AAFA386108E0FDF7A6FABF
:103A340002463B69D31A022B01D9032358E0044BF5
:103A44001B6803F00073002BF0D050E001234FE01B
:103A5400001002408C809D01274B1B6803F000730B
:103A6400002B44D1244B1B68234A43F0807313601A
:103A7400214BDB68204A43F08073D360FDF77EFA64
:103A8400386108E0FDF77AFA02463B69D31A022B43
:103A940001D903232CE0184B1B6803F00073002B9F
:103AA400F0D024E0BB690C2B1FD0134B1B68124AC7
:103AB40023F080731360FDF761FA386108E0FDF7C5
:103AC4005DFA02463B69D31A022B01D903230FE0A6
:103AD400094B1B6803F00073002BF0D1064BDA6826
:103AE4000549064B1340CB6001E0012300E00023AD
:103AF40018462037BD4680BD00100240FCFFEEFE94
:103B040080B584B000AF786039607B68002B01D148
:103B14000123E7E0754B1B6803F007033A689A42F8
:103B240010D9724B1B6823F0070270493B6813439A
:103B34000B606E4B1B6803F007033A689A4201D08E
:103B44000123CFE07B681B6803F00203002B10D035
:103B54007B689A68664B9B6803F0F0039A4208D925
:103B6400634B9B6823F0F0027B689B6860491343B6
:103B74008B607B681B6803F00103002B4CD07B68CF
:103B84005B68032B07D15A4B1B6803F00073002BAF
:103B940021D10123A6E07B685B68022B07D1544B3B
:103BA4001B6803F40033002B15D101239AE07B68D2
:103BB4005B68002B07D14E4B1B6803F00203002BFC
:103BC40009D101238EE04A4B1B6803F48063002B68
:103BD40001D1012386E0464B9B6823F003027B68F6
:103BE4005B68434913438B60FDF7C8F9F8600AE04A
:103BF400FDF7C4F90246FB68D31A41F288329342B6
:103C040001D903236EE03A4B9B6803F00C027B68F6
:103C14005B689B009A42EBD17B681B6803F002034C
:103C2400002B10D07B689A68314B9B6803F0F0033B
:103C34009A4208D22E4B9B6823F0F0027B689B6863
:103C44002B4913438B60294B1B6803F007033A6825
:103C54009A4210D2254B1B6823F0070223493B6884
:103C640013430B60214B1B6803F007033A689A4225
:103C740001D0012336E07B681B6803F00403002BAA
:103C840008D01B4B9B6823F4E0627B68DB6818490F
:103C940013438B607B681B6803F00803002B09D077
:103CA400134B9B6823F460527B681B69DB0010494B
:103CB40013438B6000F024F802460D4B9B681B09EC
:103CC40003F00F030B49CB5C03F01F0322FA03F349
:103CD400094A1360094B1B681846FDF7FFF80346B1
:103CE400FB72FB7A18461037BD4680BD00200240A7
:103CF4000010024038650008000000200400002085
:103D040080B489B000AF0023FB610023BB613E4B4C
:103D14009B6803F00C033B613B4BDB6803F003033C
:103D2400FB603B69002B05D03B690C2B21D1FB6860
:103D3400012B1ED1344B1B6803F00803002B07D161
:103D4400314BD3F894301B0A03F00F03FB6105E0F9
:103D54002D4B1B681B0903F00F03FB612B4AFB6906
:103D640052F82330FB613B69002B0DD1FB69BB6129
:103D74000AE03B69042B02D1254BBB6104E03B699B
:103D8400082B01D1234BBB613B690C2B34D11E4B57
:103D9400DB6803F00303BB60BB68022B03D0BB6882
:103DA400032B03D005E01A4B7B6105E0194B7B61C3
:103DB40002E0FB697B6100BF134BDB681B0903F066
:103DC400070301337B60104BDB681B0A03F07F039E
:103DD4007A6903FB02F27B68B2FBF3F37B610A4B63
:103DE400DB685B0E03F0030301335B003B607A691D
:103DF4003B68B2FBF3F3BB61BB6918462437BD468D
:103E04005DF8047B704700BF001002405065000855
:103E14000024F40000127A0080B400AF034B1B6846
:103E24001846BD465DF8047B704700BF00000020C3
:103E340080B500AFFFF7F0FF0246064B9B681B0AF4
:103E440003F007030449CB5C03F01F0322FA03F3D6
:103E5400184680BD001002404865000880B500AFD8
:103E6400FFF7DAFF0246064B9B68DB0A03F0070301
:103E74000449CB5C03F01F0322FA03F3184680BD08
:103E8400001002404865000880B586B000AF786035
:103E940000233B612A4B9B6D03F08053002B03D01E
:103EA400FFF7B6F9786114E0254B9B6D244A43F083
:103EB40080539365224B9B6D03F08053FB60FB683A
:103EC400FFF7A6F978611E4B9B6D1D4A23F08053C2
:103ED40093657B69B3F5007F0BD17B68802B19D97F
:103EE4007B68A02B02D902233B6113E001233B61D1
:103EF40010E07B68802B02D903233B610AE07B68D6
:103F0400802B02D102233B6104E07B68702B01D13A
:103F140001233B610B4B1B6823F0070209493B69F2
:103F240013430B60074B1B6803F007033A699A427B
:103F340001D0012300E0002318461837BD4680BD98
:103F4400001002400020024080B586B000AF7860C7
:103F54000023FB740023BB747B681B6803F40063B9
:103F6400002B31D07B68DB6CB3F5400F1AD0B3F56E
:103F7400400F14D8002B09D0B3F5000F0FD15D4BBF
:103F8400DB685C4A43F48033D3600CE07B68043321
:103F94000021184600F044FA0346FB7403E00123B1
:103FA400FB7400E000BFFB7C002B0BD1514BD3F81A
:103FB400883023F440027B68DB6C4E491343C1F81C
:103FC400883001E0FB7CBB747B681B6803F400331E
:103FD400002B00F09E8000237B74464B9B6D03F006
:103FE4008053002B01D1012300E00023002B0DD0CE
:103FF400404B9B6D3F4A43F0805393653D4B9B6D13
:1040040003F08053BB60BB6801237B743A4B1B688D
:10401400394A43F480731360FCF7B0FFF86009E099
:10402400FCF7ACFF0246FB68D31A022B02D9032328
:10403400FB7405E0304B1B6803F48073002BEFD056
:10404400FB7C002B5AD12B4BD3F8903003F44073F4
:104054007B617B69002B1ED07B685B6E7A699A4218
:1040640019D0244BD3F8903023F440737B61214B57
:10407400D3F890301F4A43F48033C2F890301D4B7C
:10408400D3F890301B4A23F48033C2F89030194A95
:104094007B69C2F890307B6903F00103002B16D0D2
:1040A400FCF76CFFF8600BE0FCF768FF0246FB6866
:1040B400D31A41F28832934202D90323FB7406E0F7
:1040C4000C4BD3F8903003F00203002BECD0FB7CB4
:1040D400002B0BD1074BD3F8903023F440727B684C
:1040E4005B6E04491343C1F8903009E0FB7CBB7458
:1040F40006E000BF0010024000700040FB7CBB746F
:104104007B7C012B05D19E4B9B6D9D4A23F08053F4
:1041140093657B681B6803F00103002B0AD0984B5E
:10412400D3F8883023F003027B681B6A9449134355
:10413400C1F888307B681B6803F00203002B0AD0A7
:104144008F4BD3F8883023F00C027B685B6A8C4970
:104154001343C1F888307B681B6803F00403002B09
:104164000AD0874BD3F8883023F030027B689B6AEF
:1041740083491343C1F888307B681B6803F0080344
:10418400002B0AD07E4BD3F8883023F0C0027B6822
:10419400DB6A7B491343C1F888307B681B6803F0F2
:1041A4002003002B0AD0764BD3F8883023F44062E6
:1041B4007B681B6B72491343C1F888307B681B68AA
:1041C40003F40073002B0AD06D4BD3F8883023F42A
:1041D40040227B685B6C6A491343C1F888307B6872
:1041E4001B6803F48063002B0AD0654BD3F8883036
:1041F40023F440127B689B6C61491343C1F88830F7
:104204007B681B6803F04003002B0AD05C4BD3F897
:10421400883023F440527B685B6B59491343C1F8DF
:1042240088307B681B6803F08003002B0AD0544B52
:10423400D3F8883023F440427B689B6B5049134386
:10424400C1F888307B681B6803F48073002B0AD0A4
:104254004B4BD3F8883023F440327B68DB6B4849FE
:104264001343C1F888307B681B6803F48013002B68
:104274000AD0434BD3F89C3023F003027B681B6CB9
:104284003F491343C1F89C307B681B6803F4005317
:10429400002B28D03A4BD3F8883023F040627B6857
:1042A4001B6D37491343C1F888307B681B6DB3F12C
:1042B400006F06D1324BDB68314A43F48013D3607C
:1042C40011E07B681B6DB3F1806F0CD17B68043304
:1042D4000121184600F0A4F80346FB74FB7C002B74
:1042E40001D0FB7CBB747B681B6803F40023002BA8
:1042F40028D0234BD3F8883023F040627B685B6D71
:104304001F491343C1F888307B685B6DB3F1006FBC
:1043140006D11B4BDB681A4A43F48013D36011E0C7
:104324007B685B6DB3F1806F0CD17B680433012132
:10433400184600F075F80346FB74FB7C002B01D093
:10434400FB7CBB747B681B6803F48023002B2BD09D
:104354000B4BD3F8883023F040627B689B6D08498F
:104364001343C1F888307B689B6DB3F1006F09D1AA
:10437400034BDB68024A43F48013D36014E000BFAC
:10438400001002407B689B6DB3F1806F0CD17B6899
:1043940004330121184600F043F80346FB74FB7C08
:1043A400002B01D0FB7CBB747B681B6803F4804347
:1043B400002B1CD0194BD3F8883023F040527B6873
:1043C400DB6D16491343C1F888307B68DB6DB3F1AC
:1043D400805F0CD17B6804330221184600F020F87A
:1043E4000346FB74FB7C002B01D0FB7CBB747B6815
:1043F4001B6803F48033002B0AD0084BD3F88830B1
:1044040023F000427B681B6E04491343C1F88830D3
:10441400BB7C18461837BD4680BD00BF0010024063
:1044240080B584B000AF786039600023FB73744BAF
:10443400DB6803F00303002B18D0714BDB6803F037
:1044440003027B681B689A420DD17B681B68002BB2
:1044540009D06B4BDB681B0903F007035A1C7B680C
:104464005B689A4247D00123FB7344E07B681B6876
:10447400032B18D0032B25D8012B02D0022B09D0F3
:1044840020E05F4B1B6803F00203002B1DD10123C6
:10449400FB731AE05A4B1B6803F48063002B16D19C
:1044A4000123FB7313E0564B1B6803F40033002B0A
:1044B4000FD1534B1B6803F48023002B09D1012334
:1044C400FB7306E00123FB7304E000BF02E000BFBE
:1044D40000E000BFFB7B002B0DD1494BDB6823F0D0
:1044E40073027B6819687B685B68013B1B010B43A3
:1044F40043491343CB60FB7B002B7CD1404B1B68AF
:104504003F4A23F080631360FCF738FDB86009E08C
:10451400FCF734FD0246BB68D31A022B02D90323ED
:10452400FB7305E0364B1B6803F00063002BEFD1EF
:10453400FB7B002B5FD13B68002B10D1304B1B69F8
:1045440023F0784323F4FE437A68926811027A6870
:10455400D268D2060A432A4913430B6127E03B6819
:10456400012B12D1264B1B6923F4C00323F4FE4311
:104574007A68926811027A6812695208013A5205FF
:104584000A431F4913430B6111E01D4B1B6923F0C0
:10459400C06323F4FE437A68926811027A68526910
:1045A4005208013A52060A43154913430B61144B4E
:1045B4001B68134A43F080631360FCF7DFFCB860A8
:1045C40009E0FCF7DBFC0246BB68D31A022B02D9D4
:1045D4000323FB7305E00A4B1B6803F00063002B05
:1045E400EFD0FB7B002B06D1054B1A697B689B69D6
:1045F400034913430B61FB7B18461037BD4680BD4E
:104604000010024080B582B000AF78607B68002B58
:1046140001D1012349E07B6893F83D30DBB2002BE4
:1046240006D17B68002283F83C207868FCF706FBFF
:104634007B68022283F83D207B681A687B68043318
:104644001946104600F0A4FD7B68012283F8482037
:104654007B68012283F83E207B68012283F83F2097
:104664007B68012283F840207B68012283F8412083
:104674007B68012283F842207B68012283F843206F
:104684007B68012283F844207B68012283F845205B
:104694007B68012283F846207B68012283F8472047
:1046A4007B68012283F83D20002318460837BD4665
:1046B40080BD80B582B000AF78607B68002B01D1EB
:1046C400012349E07B6893F83D30DBB2002B06D12F
:1046D4007B68002283F83C20786800F041F87B680E
:1046E400022283F83D207B681A687B6804331946EC
:1046F400104600F04DFD7B68012283F848207B685A
:10470400012283F83E207B68012283F83F207B68E6
:10471400012283F840207B68012283F841207B68D2
:10472400012283F842207B68012283F843207B68BE
:10473400012283F844207B68012283F845207B68AA
:10474400012283F846207B68012283F847207B6896
:10475400012283F83D20002318460837BD4680BD5A
:1047640080B483B000AF786000BF0C37BD465DF8FD
:10477400047B704780B584B000AF78603960002353
:10478400FB733B68002B09D17B6893F83E30DBB2A6
:10479400012B14BF01230023DBB23CE03B68042B54
:1047A40009D17B6893F83F30DBB2012B14BF01239E
:1047B4000023DBB22FE03B68082B09D17B6893F818
:1047C4004030DBB2012B14BF01230023DBB222E013
:1047D4003B680C2B09D17B6893F84130DBB2012B89
:1047E40014BF01230023DBB215E03B68102B09D171
:1047F4007B6893F84230DBB2012B14BF0123002302
:10480400DBB208E07B6893F84330DBB2012B14BFC2
:1048140001230023DBB2002B01D00123CEE03B684F
:10482400002B04D17B68022283F83E2023E03B68FE
:10483400042B04D17B68022283F83F201BE03B68F1
:10484400082B04D17B68022283F8402013E03B68E4
:104854000C2B04D17B68022283F841200BE03B68D7
:10486400102B04D17B68022283F8422003E07B688A
:10487400022283F843203B680C2B41D801A252F852
:1048840023F000BFBD480008054900080549000899
:1048940005490008CF4800080549000805490008F3
:1048A40005490008E14800080549000805490008D1
:1048B40005490008F34800087B681B68DA687B68D0
:1048C4001B6842F00202DA601DE07B681B68DA684C
:1048D4007B681B6842F00402DA6014E07B681B68A2
:1048E400DA687B681B6842F00802DA600BE07B68D8
:1048F4001B68DA687B681B6842F01002DA6002E029
:104904000123FB7300BFFB7B002B56D17B681B6824
:1049140001223968184600F0C1FF7B681B68294AE8
:10492400934209D07B681B68274A934204D07B6872
:104934001B68264A934201D1012300E00023002B87
:1049440007D07B681B685A6C7B681B6842F4004282
:104954005A647B681B681B4A93420ED07B681B68B1
:10496400B3F1804F09D07B681B68194A934204D085
:104974007B681B68144A934215D17B681B689A684C
:10498400144B1340BB60BB68062B15D0BB68B3F552
:10499400803F11D07B681B681A687B681B6842F0F3
:1049A40001021A6008E07B681B681A687B681B6850
:1049B40042F001021A6000E000BFFB7B184610378A
:1049C400BD4680BD002C0140004001400044014030
:1049D400000400400700010080B584B000AF786097
:1049E40039600023FB733B680C2B41D801A252F8B9
:1049F40023F000BF2D4A0008754A0008754A0008D4
:104A0400754A00083F4A0008754A0008754A0008BC
:104A1400754A0008514A0008754A0008754A00089A
:104A2400754A0008634A00087B681B68DA687B687B
:104A34001B6822F00202DA601DE07B681B68DA68FA
:104A44007B681B6822F00402DA6014E07B681B6850
:104A5400DA687B681B6822F00802DA600BE07B6886
:104A64001B68DA687B681B6822F01002DA6002E0D7
:104A74000123FB7300BFFB7B002B76D17B681B6893
:104A840000223968184600F009FF7B681B68394A20
:104A9400934209D07B681B68374A934204D07B68F1
:104AA4001B68364A934201D1012300E00023002B06
:104AB40017D07B681B681A6A41F211131340002B4C
:104AC4000FD17B681B681A6A40F244431340002BE1
:104AD40007D17B681B685A6C7B681B6822F4004210
:104AE4005A647B681B681A6A41F211131340002B45
:104AF4000FD17B681B681A6A40F244431340002BB1
:104B040007D17B681B681A687B681B6822F0010266
:104B14001A603B68002B04D17B68012283F83E2095
:104B240023E03B68042B04D17B68012283F83F20F7
:104B34001BE03B68082B04D17B68012283F84020EA
:104B440013E03B680C2B04D17B68012283F84120DD
:104B54000BE03B68102B04D17B68012283F84220D0
:104B640003E07B68012283F84320FB7B184610375F
:104B7400BD4680BD002C014000400140004401407E
:104B840080B584B000AF78607B681B68DB68FB602D
:104B94007B681B681B69BB60BB6803F00203002BC6
:104BA40020D0FB6803F00203002B1BD07B681B683A
:104BB4006FF002021A617B6801221A777B681B6816
:104BC4009B6903F00303002B03D0786800F0CBFA51
:104BD40005E0786800F0BDFA7868FBF775FD7B683E
:104BE40000221A77BB6803F00403002B20D0FB6873
:104BF40003F00403002B1BD07B681B686FF00402D6
:104C04001A617B6802221A777B681B689B6903F42C
:104C14004073002B03D0786800F0A5FA05E07868AB
:104C240000F097FA7868FBF74FFD7B6800221A774B
:104C3400BB6803F00803002B20D0FB6803F00803D3
:104C4400002B1BD07B681B686FF008021A617B681D
:104C540004221A777B681B68DB6903F00303002BCB
:104C640003D0786800F07FFA05E0786800F071FA04
:104C74007868FBF729FD7B6800221A77BB6803F08C
:104C84001003002B20D0FB6803F01003002B1BD073
:104C94007B681B686FF010021A617B6808221A7720
:104CA4007B681B68DB6903F44073002B03D07868CE
:104CB40000F059FA05E0786800F04BFA7868FBF7E1
:104CC40003FD7B6800221A77BB6803F00103002B05
:104CD4000CD0FB6803F00103002B07D07B681B6832
:104CE4006FF001021A61786800F029FABB6803F0DA
:104CF4008003002B0CD0FB6803F08003002B07D04B
:104D04007B681B686FF080021A61786800F0DCFE33
:104D1400BB6803F48073002B0CD0FB6803F08003A2
:104D2400002B07D07B681B686FF480721A61786867
:104D340000F0D4FEBB6803F04003002B0CD0FB68EA
:104D440003F04003002B07D07B681B686FF0400220
:104D54001A61786800F011FABB6803F02003002B95
:104D64000CD0FB6803F02003002B07D07B681B6882
:104D74006FF020021A61786800F09CFE00BF1037C3
:104D8400BD4680BD80B586B000AFF860B9607A607A
:104D94000023FB75FB6893F83C30012B01D10223FF
:104DA400FFE0FB68012283F83C207B68142B00F2AF
:104DB400F08001A252F823F0114E0008974F00082A
:104DC400974F0008974F0008514E0008974F00086E
:104DD400974F0008974F0008934E0008974F00081C
:104DE400974F0008974F0008D34E0008974F0008CC
:104DF400974F0008974F0008154F0008974F000879
:104E0400974F0008974F0008554F0008FB681B6830
:104E1400B968184600F02AFAFB681B689A69FB68AF
:104E24001B6842F008029A61FB681B689A69FB6878
:104E34001B6822F004029A61FB681B689969BB68CD
:104E44001A69FB681B680A439A61A5E0FB681B6842
:104E5400B968184600F086FAFB681B689A69FB6813
:104E64001B6842F400629A61FB681B689A69FB68DC
:104E74001B6822F480629A61FB681B689969BB68AD
:104E84001B691A02FB681B680A439A6184E0FB6889
:104E94001B68B968184600F0DFFAFB681B68DA691A
:104EA400FB681B6842F00802DA61FB681B68DA6978
:104EB400FB681B6822F00402DA61FB681B68D9698D
:104EC400BB681A69FB681B680A43DA6164E0FB6823
:104ED4001B68B968184600F037FBFB681B68DA6981
:104EE400FB681B6842F40062DA61FB681B68DA69DC
:104EF400FB681B6822F48062DA61FB681B68D9696D
:104F0400BB681B691A02FB681B680A43DA6143E049
:104F1400FB681B68B968184600F074FBFB681B68E3
:104F24005A6DFB681B6842F008025A65FB681B68EF
:104F34005A6DFB681B6822F004025A65FB681B6803
:104F4400596DBB681A69FB681B680A435A6523E0FC
:104F5400FB681B68B968184600F0ACFBFB681B686B
:104F64005A6DFB681B6842F400625A65FB681B6853
:104F74005A6DFB681B6822F480625A65FB681B68E3
:104F8400596DBB681B691A02FB681B680A435A65A2
:104F940002E00123FB7500BFFB68002283F83C207C
:104FA400FB7D18461837BD4680BD00BF80B584B070
:104FB40000AF786039600023FB737B6893F83C3062
:104FC400012B01D10223B6E07B68012283F83C2047
:104FD4007B68022283F83D207B681B689B68BB606A
:104FE400BB6823F4803323F07703BB60BB6823F4EE
:104FF4007F43BB607B681B68BA689A603B681B6828
:10500400B3F5005F3ED0B3F5005F00F28780B3F5DF
:10501400805F00F08680B3F5805F7FD8702B1AD054
:10502400702B7BD8602B50D0602B77D8502B3CD082
:10503400502B73D8402B58D0402B6FD8302B64D0D2
:10504400302B6BD8202B60D0202B67D8002B5CD062
:10505400102B5AD062E07B6818683B6899683B68FB
:105064005A683B68DB6800F0F9FB7B681B689B6847
:10507400BB60BB6843F07703BB607B681B68BA689E
:105084009A604FE07B6818683B6899683B685A6887
:105094003B68DB6800F0E2FB7B681B689A687B680E
:1050A4001B6842F480429A603CE07B6818683B6865
:1050B40059683B68DB681A4600F056FB7B681B683E
:1050C4005021184600F0AFFB2CE07B6818683B6861
:1050D40059683B68DB681A4600F075FB7B681B68FF
:1050E4006021184600F09FFB1CE07B6818683B6851
:1050F40059683B68DB681A4600F036FB7B681B681E
:105104004021184600F08FFB0CE07B681A683B686E
:105114001B681946104600F086FB03E00123FB736D
:1051240000E000BF7B68012283F83D207B680022F9
:1051340083F83C20FB7B18461037BD4680BD80B405
:1051440083B000AF786000BF0C37BD465DF8047BC8
:10515400704780B483B000AF786000BF0C37BD46A1
:105164005DF8047B704780B483B000AF786000BF03
:105174000C37BD465DF8047B704780B483B000AF44
:10518400786000BF0C37BD465DF8047B70470000B3
:1051940080B485B000AF786039607B681B68FB60C1
:1051A4007B682E4A934207D07B68B3F1804F03D0CB
:1051B4007B682B4A934208D1FB6823F07003FB60A1
:1051C4003B685B68FA681343FB607B68234A93423D
:1051D4000FD07B68B3F1804F0BD07B68204A934299
:1051E40007D07B681F4A934203D07B681E4A9342D0
:1051F40008D1FB6823F44073FB603B68DB68FA6802
:105204001343FB60FB6823F080023B685B69134334
:10521400FB607B68FA681A603B689A687B68DA62AC
:105224003B681A687B689A627B680C4A934207D091
:105234007B680C4A934203D07B680B4A934203D1A8
:105244003B681A697B681A637B6801225A6100BF54
:105254001437BD465DF8047B704700BF002C014045
:1052640000040040004001400044014080B487B085
:1052740000AF786039607B681B6A7B617B681B6A5E
:1052840023F001027B681A627B685B683B617B6880
:105294009B69FB60FB6823F4803323F07003FB609D
:1052A400FB6823F00303FB603B681B68FA68134345
:1052B400FB607B6923F002037B613B689B687A692E
:1052C40013437B617B68244A934207D07B68234A5B
:1052D400934203D07B68224A93420CD17B6923F02A
:1052E40008037B613B68DB687A6913437B617B69F4
:1052F40023F004037B617B68174A934207D07B68E1
:10530400164A934203D07B68154A934211D13B69F4
:1053140023F480733B613B6923F400733B613B6876
:105324005B693A6913433B613B689B693A69134380
:105334003B617B683A695A607B68FA689A613B68AA
:105344005A687B685A637B687A691A6200BF1C37A3
:10535400BD465DF8047B7047002C014000400140CD
:105364000044014080B487B000AF786039607B6846
:105374001B6A7B617B681B6A23F010027B681A62DC
:105384007B685B683B617B689B69FB60FB6823F01F
:10539400807323F4E043FB60FB6823F44073FB60F9
:1053A4003B681B681B02FA681343FB607B6923F0AC
:1053B40020037B613B689B681B017A6913437B6113
:1053C4007B68224A93420DD17B6923F080037B6181
:1053D4003B68DB681B017A6913437B617B6923F0BB
:1053E40040037B617B68194A934207D07B68184A63
:1053F400934203D07B68174A934213D13B6923F449
:1054040080633B613B6923F400633B613B685B69F8
:105414009B003A6913433B613B689B699B003A6973
:1054240013433B617B683A695A607B68FA689A6106
:105434003B685A687B689A637B687A691A6200BF22
:105444001C37BD465DF8047B704700BF002C01404B
:10545400004001400044014080B487B000AF786050
:1054640039607B681B6A7B617B681B6A23F48072EA
:105474007B681A627B685B683B617B68DB69FB6005
:10548400FB6823F4803323F07003FB60FB6823F094
:105494000303FB603B681B68FA681343FB607B698A
:1054A40023F400737B613B689B681B027A69134396
:1054B4007B617B68214A93420DD17B6923F40063AD
:1054C4007B613B68DB681B027A6913437B617B6900
:1054D40023F480637B617B68184A934207D07B681E
:1054E400174A934203D07B68164A934213D13B690F
:1054F40023F480533B613B6923F400533B613B68D5
:105504005B691B013A6913433B613B689B691B015F
:105514003A6913433B617B683A695A607B68FA686D
:10552400DA613B685A687B68DA637B687A691A6275
:1055340000BF1C37BD465DF8047B7047002C01405A
:10554400004001400044014080B487B000AF78605F
:1055540039607B681B6A3B617B681B6A23F4805259
:105564007B681A627B685B687B617B68DB69FB60D4
:10557400FB6823F0807323F4E043FB60FB6823F4AF
:105584004073FB603B681B681B02FA681343FB60B3
:105594003B6923F400533B613B689B681B033A69F6
:1055A40013433B617B68144A934207D07B68134AD8
:1055B400934203D07B68124A934209D17B6923F456
:1055C40080437B613B685B699B017A6913437B6120
:1055D4007B687A695A607B68FA68DA613B685A6862
:1055E4007B681A647B683A691A6200BF1C37BD463F
:1055F4005DF8047B704700BF002C0140004001406F
:105604000044014080B487B000AF786039607B68A3
:105614001B6A3B617B681B6A23F480327B681A62D5
:105624007B685B687B617B685B6DFB60FB6823F474
:10563400803323F07003FB603B681B68FA681343F4
:10564400FB603B6923F400333B613B689B681B04AC
:105654003A6913433B617B68134A934207D07B68E2
:10566400124A934203D07B68114A934209D17B6961
:1056740023F480337B613B685B691B027A691343C3
:105684007B617B687A695A607B68FA685A653B6813
:105694005A687B689A657B683A691A6200BF1C374E
:1056A400BD465DF8047B7047002C0140004001407A
:1056B4000044014080B487B000AF786039607B68F3
:1056C4001B6A3B617B681B6A23F480127B681A6245
:1056D4007B685B687B617B685B6DFB60FB6823F0C8
:1056E400807323F4E043FB603B681B681B02FA6889
:1056F4001343FB603B6923F400133B613B689B68E5
:105704001B053A6913433B617B68144A934207D0F3
:105714007B68134A934203D07B68124A934209D1AF
:105724007B6923F480237B613B685B699B027A6914
:1057340013437B617B687A695A607B68FA685A65AF
:105744003B685A687B68DA657B683A691A6200BF0D
:105754001C37BD465DF8047B704700BF002C014038
:10576400004001400044014080B487B000AFF860BD
:10577400B9607A60FB681B6A7B61FB681B6A23F073
:105784000102FB681A62FB689B693B613B6923F079
:10579400F0033B617B681B013A6913433B617B69FE
:1057A40023F00A037B617A69BB6813437B61FB685E
:1057B4003A699A61FB687A691A6200BF1C37BD4670
:1057C4005DF8047B704780B487B000AFF860B960BF
:1057D4007A60FB681B6A7B61FB681B6A23F010021A
:1057E400FB681A62FB689B693B613B6923F4704365
:1057F4003B617B681B033A6913433B617B6923F07C
:10580400A0037B61BB681B017A6913437B61FB685E
:105814003A699A61FB687A691A6200BF1C37BD460F
:105824005DF8047B704780B485B000AF7860396060
:105834007B689B68FB60FB6823F07003FB603A683D
:10584400FB68134343F00703FB607B68FA689A60C4
:1058540000BF1437BD465DF8047B704780B487B041
:1058640000AFF860B9607A603B60FB689B687B615D
:105874007B6923F47F437B613B681A027B681A438C
:10588400BB6813437A6913437B61FB687A699A6046
:1058940000BF1C37BD465DF8047B704780B487B0F9
:1058A40000AFF860B9607A60BB6803F01F0301229F
:1058B40002FA03F37B61FB681A6A7B69DB431A40D3
:1058C400FB681A62FB681A6ABB6803F01F037968F5
:1058D40001FA03F31A43FB681A6200BF1C37BD4682
:1058E4005DF8047B7047000080B485B000AF786039
:1058F40039607B6893F83C30012B01D1022354E0DA
:105904007B68012283F83C207B68022283F83D20D7
:105914007B681B685B68FB607B681B689B68BB607B
:105924007B681B68244A934208D1FB6823F4700304
:10593400FB603B685B68FA681343FB60FB6823F019
:105944007003FB603B681B68FA681343FB607B6869
:105954001B68FA685A607B681B68174A93420ED02A
:105964007B681B68B3F1804F09D07B681B68134ABE
:10597400934204D07B681B68114A93420CD1BB68E4
:1059840023F08003BB603B689B68BA681343BB6029
:105994007B681B68BA689A607B68012283F83D20A3
:1059A4007B68002283F83C20002318461437BD4648
:1059B4005DF8047B704700BF002C014000040040E8
:1059C4000040014080B485B000AF786039600023A6
:1059D400FB607B6893F83C30012B01D1022360E02B
:1059E4007B68012283F83C20FB6823F0FF023B68BC
:1059F400DB681343FB60FB6823F440723B689B68DD
:105A04001343FB60FB6823F480623B685B681343C9
:105A1400FB60FB6823F400623B681B681343FB6074
:105A2400FB6823F480523B681B691343FB60FB68EB
:105A340023F400523B685B691343FB60FB6823F467
:105A440080423B689B6A1343FB60FB6823F470222B
:105A54003B689B691B041343FB607B681B68144A07
:105A6400934215D1FB6823F470023B685B6A1B0503
:105A74001343FB60FB6823F080723B68DB691343CC
:105A8400FB60FB6823F000723B681B6A1343FB60F6
:105A94007B681B68FA685A647B68002283F83C20A0
:105AA400002318461437BD465DF8047B704700BFD9
:105AB400002C014080B483B000AF786000BF0C3785
:105AC400BD465DF8047B704780B483B000AF786056
